{
  "_format": "hh-sol-artifact-1",
  "contractName": "Kiftables",
  "sourceName": "contracts/Kiftables.sol",
  "abi": [
    {
      "inputs": [
        {
          "internalType": "string",
          "name": "_preRevealURI",
          "type": "string"
        },
        {
          "internalType": "bytes32",
          "name": "_s_keyHash",
          "type": "bytes32"
        },
        {
          "internalType": "address",
          "name": "_vrfCoordinator",
          "type": "address"
        },
        {
          "internalType": "uint64",
          "name": "_s_subscriptionId",
          "type": "uint64"
        }
      ],
      "stateMutability": "nonpayable",
      "type": "constructor"
    },
    {
      "inputs": [],
      "name": "ApprovalCallerNotOwnerNorApproved",
      "type": "error"
    },
    {
      "inputs": [],
      "name": "ApprovalQueryForNonexistentToken",
      "type": "error"
    },
    {
      "inputs": [],
      "name": "ApprovalToCurrentOwner",
      "type": "error"
    },
    {
      "inputs": [],
      "name": "ApproveToCaller",
      "type": "error"
    },
    {
      "inputs": [],
      "name": "BalanceQueryForZeroAddress",
      "type": "error"
    },
    {
      "inputs": [],
      "name": "MintToZeroAddress",
      "type": "error"
    },
    {
      "inputs": [],
      "name": "MintZeroQuantity",
      "type": "error"
    },
    {
      "inputs": [
        {
          "internalType": "address",
          "name": "have",
          "type": "address"
        },
        {
          "internalType": "address",
          "name": "want",
          "type": "address"
        }
      ],
      "name": "OnlyCoordinatorCanFulfill",
      "type": "error"
    },
    {
      "inputs": [],
      "name": "OwnerQueryForNonexistentToken",
      "type": "error"
    },
    {
      "inputs": [],
      "name": "TransferCallerNotOwnerNorApproved",
      "type": "error"
    },
    {
      "inputs": [],
      "name": "TransferFromIncorrectOwner",
      "type": "error"
    },
    {
      "inputs": [],
      "name": "TransferToNonERC721ReceiverImplementer",
      "type": "error"
    },
    {
      "inputs": [],
      "name": "TransferToZeroAddress",
      "type": "error"
    },
    {
      "inputs": [],
      "name": "URIQueryForNonexistentToken",
      "type": "error"
    },
    {
      "anonymous": false,
      "inputs": [
        {
          "indexed": true,
          "internalType": "address",
          "name": "owner",
          "type": "address"
        },
        {
          "indexed": true,
          "internalType": "address",
          "name": "approved",
          "type": "address"
        },
        {
          "indexed": true,
          "internalType": "uint256",
          "name": "tokenId",
          "type": "uint256"
        }
      ],
      "name": "Approval",
      "type": "event"
    },
    {
      "anonymous": false,
      "inputs": [
        {
          "indexed": true,
          "internalType": "address",
          "name": "owner",
          "type": "address"
        },
        {
          "indexed": true,
          "internalType": "address",
          "name": "operator",
          "type": "address"
        },
        {
          "indexed": false,
          "internalType": "bool",
          "name": "approved",
          "type": "bool"
        }
      ],
      "name": "ApprovalForAll",
      "type": "event"
    },
    {
      "anonymous": false,
      "inputs": [
        {
          "indexed": true,
          "internalType": "address",
          "name": "previousOwner",
          "type": "address"
        },
        {
          "indexed": true,
          "internalType": "address",
          "name": "newOwner",
          "type": "address"
        }
      ],
      "name": "OwnershipTransferred",
      "type": "event"
    },
    {
      "anonymous": false,
      "inputs": [
        {
          "indexed": true,
          "internalType": "address",
          "name": "from",
          "type": "address"
        },
        {
          "indexed": true,
          "internalType": "address",
          "name": "to",
          "type": "address"
        },
        {
          "indexed": true,
          "internalType": "uint256",
          "name": "tokenId",
          "type": "uint256"
        }
      ],
      "name": "Transfer",
      "type": "event"
    },
    {
      "inputs": [],
      "name": "COMMUNITY_SALE_PRICE",
      "outputs": [
        {
          "internalType": "uint256",
          "name": "",
          "type": "uint256"
        }
      ],
      "stateMutability": "view",
      "type": "function"
    },
    {
      "inputs": [],
      "name": "MAX_KIFTABLES_PER_WALLET",
      "outputs": [
        {
          "internalType": "uint256",
          "name": "",
          "type": "uint256"
        }
      ],
      "stateMutability": "view",
      "type": "function"
    },
    {
      "inputs": [],
      "name": "PUBLIC_SALE_PRICE",
      "outputs": [
        {
          "internalType": "uint256",
          "name": "",
          "type": "uint256"
        }
      ],
      "stateMutability": "view",
      "type": "function"
    },
    {
      "inputs": [],
      "name": "REVEAL_BATCH_SIZE",
      "outputs": [
        {
          "internalType": "uint256",
          "name": "",
          "type": "uint256"
        }
      ],
      "stateMutability": "view",
      "type": "function"
    },
    {
      "inputs": [],
      "name": "TOKEN_LIMIT",
      "outputs": [
        {
          "internalType": "uint256",
          "name": "",
          "type": "uint256"
        }
      ],
      "stateMutability": "view",
      "type": "function"
    },
    {
      "inputs": [
        {
          "internalType": "address",
          "name": "to",
          "type": "address"
        },
        {
          "internalType": "uint256",
          "name": "tokenId",
          "type": "uint256"
        }
      ],
      "name": "approve",
      "outputs": [],
      "stateMutability": "nonpayable",
      "type": "function"
    },
    {
      "inputs": [
        {
          "internalType": "address",
          "name": "owner",
          "type": "address"
        }
      ],
      "name": "balanceOf",
      "outputs": [
        {
          "internalType": "uint256",
          "name": "",
          "type": "uint256"
        }
      ],
      "stateMutability": "view",
      "type": "function"
    },
    {
      "inputs": [],
      "name": "baseURI",
      "outputs": [
        {
          "internalType": "string",
          "name": "",
          "type": "string"
        }
      ],
      "stateMutability": "view",
      "type": "function"
    },
    {
      "inputs": [
        {
          "internalType": "uint256",
          "name": "",
          "type": "uint256"
        }
      ],
      "name": "batchToSeed",
      "outputs": [
        {
          "internalType": "uint256",
          "name": "",
          "type": "uint256"
        }
      ],
      "stateMutability": "view",
      "type": "function"
    },
    {
      "inputs": [
        {
          "internalType": "address",
          "name": "_to",
          "type": "address"
        },
        {
          "internalType": "uint256[]",
          "name": "_tokenIds",
          "type": "uint256[]"
        }
      ],
      "name": "bulkTransfer",
      "outputs": [],
      "stateMutability": "nonpayable",
      "type": "function"
    },
    {
      "inputs": [],
      "name": "communityListMerkleRoot",
      "outputs": [
        {
          "internalType": "bytes32",
          "name": "",
          "type": "bytes32"
        }
      ],
      "stateMutability": "view",
      "type": "function"
    },
    {
      "inputs": [
        {
          "internalType": "address",
          "name": "",
          "type": "address"
        }
      ],
      "name": "communityMintCounts",
      "outputs": [
        {
          "internalType": "uint256",
          "name": "",
          "type": "uint256"
        }
      ],
      "stateMutability": "view",
      "type": "function"
    },
    {
      "inputs": [],
      "name": "communitySaleLive",
      "outputs": [
        {
          "internalType": "bool",
          "name": "",
          "type": "bool"
        }
      ],
      "stateMutability": "view",
      "type": "function"
    },
    {
      "inputs": [],
      "name": "count",
      "outputs": [
        {
          "internalType": "uint256",
          "name": "",
          "type": "uint256"
        }
      ],
      "stateMutability": "view",
      "type": "function"
    },
    {
      "inputs": [],
      "name": "counter",
      "outputs": [
        {
          "internalType": "uint256",
          "name": "",
          "type": "uint256"
        }
      ],
      "stateMutability": "view",
      "type": "function"
    },
    {
      "inputs": [
        {
          "internalType": "uint256",
          "name": "tokenId",
          "type": "uint256"
        }
      ],
      "name": "getApproved",
      "outputs": [
        {
          "internalType": "address",
          "name": "",
          "type": "address"
        }
      ],
      "stateMutability": "view",
      "type": "function"
    },
    {
      "inputs": [],
      "name": "getBaseURI",
      "outputs": [
        {
          "internalType": "string",
          "name": "",
          "type": "string"
        }
      ],
      "stateMutability": "view",
      "type": "function"
    },
    {
      "inputs": [
        {
          "internalType": "uint256",
          "name": "batch",
          "type": "uint256"
        }
      ],
      "name": "getSeedForBatch",
      "outputs": [
        {
          "internalType": "uint256",
          "name": "seed",
          "type": "uint256"
        }
      ],
      "stateMutability": "view",
      "type": "function"
    },
    {
      "inputs": [
        {
          "internalType": "uint256",
          "name": "startId",
          "type": "uint256"
        }
      ],
      "name": "getShuffledTokenId",
      "outputs": [
        {
          "internalType": "uint256",
          "name": "",
          "type": "uint256"
        }
      ],
      "stateMutability": "view",
      "type": "function"
    },
    {
      "inputs": [
        {
          "internalType": "address",
          "name": "owner",
          "type": "address"
        },
        {
          "internalType": "address",
          "name": "operator",
          "type": "address"
        }
      ],
      "name": "isApprovedForAll",
      "outputs": [
        {
          "internalType": "bool",
          "name": "",
          "type": "bool"
        }
      ],
      "stateMutability": "view",
      "type": "function"
    },
    {
      "inputs": [],
      "name": "isCommunitySaleActive",
      "outputs": [
        {
          "internalType": "bool",
          "name": "",
          "type": "bool"
        }
      ],
      "stateMutability": "view",
      "type": "function"
    },
    {
      "inputs": [],
      "name": "isPublicSaleActive",
      "outputs": [
        {
          "internalType": "bool",
          "name": "",
          "type": "bool"
        }
      ],
      "stateMutability": "view",
      "type": "function"
    },
    {
      "inputs": [],
      "name": "lastTokenRevealed",
      "outputs": [
        {
          "internalType": "uint256",
          "name": "",
          "type": "uint256"
        }
      ],
      "stateMutability": "view",
      "type": "function"
    },
    {
      "inputs": [],
      "name": "maxCommunitySaleKiftables",
      "outputs": [
        {
          "internalType": "uint256",
          "name": "",
          "type": "uint256"
        }
      ],
      "stateMutability": "view",
      "type": "function"
    },
    {
      "inputs": [],
      "name": "maxKiftables",
      "outputs": [
        {
          "internalType": "uint256",
          "name": "",
          "type": "uint256"
        }
      ],
      "stateMutability": "view",
      "type": "function"
    },
    {
      "inputs": [],
      "name": "maxTreasuryKiftables",
      "outputs": [
        {
          "internalType": "uint256",
          "name": "",
          "type": "uint256"
        }
      ],
      "stateMutability": "view",
      "type": "function"
    },
    {
      "inputs": [
        {
          "internalType": "uint256",
          "name": "numberOfTokens",
          "type": "uint256"
        }
      ],
      "name": "mint",
      "outputs": [],
      "stateMutability": "payable",
      "type": "function"
    },
    {
      "inputs": [
        {
          "internalType": "uint8",
          "name": "numberOfTokens",
          "type": "uint8"
        },
        {
          "internalType": "bytes32[]",
          "name": "merkleProof",
          "type": "bytes32[]"
        }
      ],
      "name": "mintCommunitySale",
      "outputs": [],
      "stateMutability": "payable",
      "type": "function"
    },
    {
      "inputs": [],
      "name": "name",
      "outputs": [
        {
          "internalType": "string",
          "name": "",
          "type": "string"
        }
      ],
      "stateMutability": "view",
      "type": "function"
    },
    {
      "inputs": [],
      "name": "owner",
      "outputs": [
        {
          "internalType": "address",
          "name": "",
          "type": "address"
        }
      ],
      "stateMutability": "view",
      "type": "function"
    },
    {
      "inputs": [
        {
          "internalType": "uint256",
          "name": "tokenId",
          "type": "uint256"
        }
      ],
      "name": "ownerOf",
      "outputs": [
        {
          "internalType": "address",
          "name": "",
          "type": "address"
        }
      ],
      "stateMutability": "view",
      "type": "function"
    },
    {
      "inputs": [],
      "name": "publicSaleLive",
      "outputs": [
        {
          "internalType": "bool",
          "name": "",
          "type": "bool"
        }
      ],
      "stateMutability": "view",
      "type": "function"
    },
    {
      "inputs": [
        {
          "internalType": "uint256",
          "name": "requestId",
          "type": "uint256"
        },
        {
          "internalType": "uint256[]",
          "name": "randomWords",
          "type": "uint256[]"
        }
      ],
      "name": "rawFulfillRandomWords",
      "outputs": [],
      "stateMutability": "nonpayable",
      "type": "function"
    },
    {
      "inputs": [],
      "name": "renounceOwnership",
      "outputs": [],
      "stateMutability": "nonpayable",
      "type": "function"
    },
    {
      "inputs": [],
      "name": "revealCount",
      "outputs": [
        {
          "internalType": "uint256",
          "name": "",
          "type": "uint256"
        }
      ],
      "stateMutability": "view",
      "type": "function"
    },
    {
      "inputs": [],
      "name": "revealNextBatch",
      "outputs": [],
      "stateMutability": "nonpayable",
      "type": "function"
    },
    {
      "inputs": [
        {
          "internalType": "uint256",
          "name": "_tokenId",
          "type": "uint256"
        },
        {
          "internalType": "uint256",
          "name": "_salePrice",
          "type": "uint256"
        }
      ],
      "name": "royaltyInfo",
      "outputs": [
        {
          "internalType": "address",
          "name": "receiver",
          "type": "address"
        },
        {
          "internalType": "uint256",
          "name": "royaltyAmount",
          "type": "uint256"
        }
      ],
      "stateMutability": "view",
      "type": "function"
    },
    {
      "inputs": [
        {
          "internalType": "address",
          "name": "from",
          "type": "address"
        },
        {
          "internalType": "address",
          "name": "to",
          "type": "address"
        },
        {
          "internalType": "uint256",
          "name": "tokenId",
          "type": "uint256"
        }
      ],
      "name": "safeTransferFrom",
      "outputs": [],
      "stateMutability": "nonpayable",
      "type": "function"
    },
    {
      "inputs": [
        {
          "internalType": "address",
          "name": "from",
          "type": "address"
        },
        {
          "internalType": "address",
          "name": "to",
          "type": "address"
        },
        {
          "internalType": "uint256",
          "name": "tokenId",
          "type": "uint256"
        },
        {
          "internalType": "bytes",
          "name": "_data",
          "type": "bytes"
        }
      ],
      "name": "safeTransferFrom",
      "outputs": [],
      "stateMutability": "nonpayable",
      "type": "function"
    },
    {
      "inputs": [
        {
          "internalType": "address",
          "name": "operator",
          "type": "address"
        },
        {
          "internalType": "bool",
          "name": "approved",
          "type": "bool"
        }
      ],
      "name": "setApprovalForAll",
      "outputs": [],
      "stateMutability": "nonpayable",
      "type": "function"
    },
    {
      "inputs": [
        {
          "internalType": "string",
          "name": "_baseURI",
          "type": "string"
        }
      ],
      "name": "setBaseURI",
      "outputs": [],
      "stateMutability": "nonpayable",
      "type": "function"
    },
    {
      "inputs": [
        {
          "internalType": "bytes32",
          "name": "_merkleRoot",
          "type": "bytes32"
        }
      ],
      "name": "setCommunityListMerkleRoot",
      "outputs": [],
      "stateMutability": "nonpayable",
      "type": "function"
    },
    {
      "inputs": [
        {
          "internalType": "bool",
          "name": "_isCommunitySaleActive",
          "type": "bool"
        }
      ],
      "name": "setIsCommunitySaleActive",
      "outputs": [],
      "stateMutability": "nonpayable",
      "type": "function"
    },
    {
      "inputs": [
        {
          "internalType": "bool",
          "name": "_isPublicSaleActive",
          "type": "bool"
        }
      ],
      "name": "setIsPublicSaleActive",
      "outputs": [],
      "stateMutability": "nonpayable",
      "type": "function"
    },
    {
      "inputs": [
        {
          "internalType": "string",
          "name": "_uri",
          "type": "string"
        }
      ],
      "name": "setPreRevealUri",
      "outputs": [],
      "stateMutability": "nonpayable",
      "type": "function"
    },
    {
      "inputs": [
        {
          "internalType": "bytes4",
          "name": "interfaceId",
          "type": "bytes4"
        }
      ],
      "name": "supportsInterface",
      "outputs": [
        {
          "internalType": "bool",
          "name": "",
          "type": "bool"
        }
      ],
      "stateMutability": "view",
      "type": "function"
    },
    {
      "inputs": [],
      "name": "symbol",
      "outputs": [
        {
          "internalType": "string",
          "name": "",
          "type": "string"
        }
      ],
      "stateMutability": "view",
      "type": "function"
    },
    {
      "inputs": [
        {
          "internalType": "uint256",
          "name": "_tokenId",
          "type": "uint256"
        }
      ],
      "name": "tokenURI",
      "outputs": [
        {
          "internalType": "string",
          "name": "",
          "type": "string"
        }
      ],
      "stateMutability": "view",
      "type": "function"
    },
    {
      "inputs": [],
      "name": "totalSupply",
      "outputs": [
        {
          "internalType": "uint256",
          "name": "",
          "type": "uint256"
        }
      ],
      "stateMutability": "view",
      "type": "function"
    },
    {
      "inputs": [
        {
          "internalType": "address",
          "name": "from",
          "type": "address"
        },
        {
          "internalType": "address",
          "name": "to",
          "type": "address"
        },
        {
          "internalType": "uint256",
          "name": "tokenId",
          "type": "uint256"
        }
      ],
      "name": "transferFrom",
      "outputs": [],
      "stateMutability": "nonpayable",
      "type": "function"
    },
    {
      "inputs": [
        {
          "internalType": "address",
          "name": "newOwner",
          "type": "address"
        }
      ],
      "name": "transferOwnership",
      "outputs": [],
      "stateMutability": "nonpayable",
      "type": "function"
    },
    {
      "inputs": [],
      "name": "treasuryMint",
      "outputs": [],
      "stateMutability": "nonpayable",
      "type": "function"
    },
    {
      "inputs": [],
      "name": "treasuryMinted",
      "outputs": [
        {
          "internalType": "bool",
          "name": "",
          "type": "bool"
        }
      ],
      "stateMutability": "view",
      "type": "function"
    },
    {
      "inputs": [
        {
          "internalType": "bytes32[]",
          "name": "proof",
          "type": "bytes32[]"
        },
        {
          "internalType": "bytes32",
          "name": "root",
          "type": "bytes32"
        }
      ],
      "name": "verify",
      "outputs": [
        {
          "internalType": "bool",
          "name": "",
          "type": "bool"
        }
      ],
      "stateMutability": "view",
      "type": "function"
    },
    {
      "inputs": [],
      "name": "withdraw",
      "outputs": [],
      "stateMutability": "payable",
      "type": "function"
    }
  ],
  "bytecode": "0x60e06040526000600b55612710600e55611b58600f556103e86010556000601160006101000a81548160ff0219169083151502179055503480156200004357600080fd5b506040516200629038038062006290833981810160405281019062000069919062000512565b816040518060400160405280600981526020017f4b69667461626c657300000000000000000000000000000000000000000000008152506040518060400160405280600481526020017f4b494654000000000000000000000000000000000000000000000000000000008152508160029080519060200190620000ee929190620003ab565b50806003908051906020019062000107929190620003ab565b50620001186200020360201b60201c565b600081905550505062000140620001346200020860201b60201c565b6200021060201b60201c565b60016009819055508073ffffffffffffffffffffffffffffffffffffffff1660808173ffffffffffffffffffffffffffffffffffffffff1660601b815250505081601460006101000a81548173ffffffffffffffffffffffffffffffffffffffff021916908373ffffffffffffffffffffffffffffffffffffffff1602179055508260a081815250508067ffffffffffffffff1660c08167ffffffffffffffff1660c01b81525050620001f984620002d660201b60201c565b505050506200082a565b600090565b600033905090565b6000600860009054906101000a900473ffffffffffffffffffffffffffffffffffffffff16905081600860006101000a81548173ffffffffffffffffffffffffffffffffffffffff021916908373ffffffffffffffffffffffffffffffffffffffff1602179055508173ffffffffffffffffffffffffffffffffffffffff168173ffffffffffffffffffffffffffffffffffffffff167f8be0079c531659141344cd1fd0a4f28419497f9722a3daafe3b4186f6b6457e060405160405180910390a35050565b620002e66200020860201b60201c565b73ffffffffffffffffffffffffffffffffffffffff166200030c6200038160201b60201c565b73ffffffffffffffffffffffffffffffffffffffff161462000365576040517f08c379a00000000000000000000000000000000000000000000000000000000081526004016200035c90620005be565b60405180910390fd5b80600d90805190602001906200037d929190620003ab565b5050565b6000600860009054906101000a900473ffffffffffffffffffffffffffffffffffffffff16905090565b828054620003b990620006d8565b90600052602060002090601f016020900481019282620003dd576000855562000429565b82601f10620003f857805160ff191683800117855562000429565b8280016001018555821562000429579182015b82811115620004285782518255916020019190600101906200040b565b5b5090506200043891906200043c565b5090565b5b80821115620004575760008160009055506001016200043d565b5090565b6000620004726200046c8462000609565b620005e0565b9050828152602081018484840111156200048b57600080fd5b62000498848285620006a2565b509392505050565b600081519050620004b181620007dc565b92915050565b600081519050620004c881620007f6565b92915050565b600082601f830112620004e057600080fd5b8151620004f28482602086016200045b565b91505092915050565b6000815190506200050c8162000810565b92915050565b600080600080608085870312156200052957600080fd5b600085015167ffffffffffffffff8111156200054457600080fd5b6200055287828801620004ce565b94505060206200056587828801620004b7565b93505060406200057887828801620004a0565b92505060606200058b87828801620004fb565b91505092959194509250565b6000620005a66020836200063f565b9150620005b382620007b3565b602082019050919050565b60006020820190508181036000830152620005d98162000597565b9050919050565b6000620005ec620005ff565b9050620005fa82826200070e565b919050565b6000604051905090565b600067ffffffffffffffff82111562000627576200062662000773565b5b6200063282620007a2565b9050602081019050919050565b600082825260208201905092915050565b60006200065d826200066e565b9050919050565b6000819050919050565b600073ffffffffffffffffffffffffffffffffffffffff82169050919050565b600067ffffffffffffffff82169050919050565b60005b83811015620006c2578082015181840152602081019050620006a5565b83811115620006d2576000848401525b50505050565b60006002820490506001821680620006f157607f821691505b6020821081141562000708576200070762000744565b5b50919050565b6200071982620007a2565b810181811067ffffffffffffffff821117156200073b576200073a62000773565b5b80604052505050565b7f4e487b7100000000000000000000000000000000000000000000000000000000600052602260045260246000fd5b7f4e487b7100000000000000000000000000000000000000000000000000000000600052604160045260246000fd5b6000601f19601f8301169050919050565b7f4f776e61626c653a2063616c6c6572206973206e6f7420746865206f776e6572600082015250565b620007e78162000650565b8114620007f357600080fd5b50565b620008018162000664565b81146200080d57600080fd5b50565b6200081b816200068e565b81146200082757600080fd5b50565b60805160601c60a05160c05160c01c615a296200086760003960006116b20152600061169101526000818161124101526112950152615a296000f3fe60806040526004361061034f5760003560e01c8063714c5398116101c6578063aed5be35116100f7578063e10c605f11610095578063f0e9516c1161006f578063f0e9516c14610c2b578063f2fde38b14610c56578063f431919514610c7f578063fdd0f3ca14610caa5761034f565b8063e10c605f14610b9a578063e985e9c514610bc3578063eb4883ab14610c005761034f565b8063bec95107116100d1578063bec9510714610acc578063c87b56dd14610af7578063cfedd61b14610b34578063d28a476114610b715761034f565b8063aed5be3514610a4d578063b88d4fde14610a78578063badabe7b14610aa15761034f565b80639471558e116101645780639f2063da1161013e5780639f2063da146109a0578063a0712d68146109cb578063a1e88872146109e7578063a22cb46514610a245761034f565b80639471558e1461090d57806395d89b4114610938578063972a2a62146109635761034f565b80638ba4c972116101a05780638ba4c972146108705780638da5cb5b1461089b5780638e4f8692146108c65780638f1d2805146108e25761034f565b8063714c5398146107f1578063715018a61461081c578063777c9091146108335761034f565b806323b872dd116102a057806342842e0e1161023e578063622f1c4711610218578063622f1c47146107355780636352211e1461074c5780636c0360eb1461078957806370a08231146107b45761034f565b806342842e0e146106b857806355f804b3146106e157806361bc221a1461070a5761034f565b806328cad13d1161027a57806328cad13d1461060a5780632a55205a1461063357806337cacb11146106715780633ccfd60b146106ae5761034f565b806323b872dd1461058b57806326d93800146105b457806328032fec146105df5761034f565b806307e89ec01161030d5780630d3cf1f2116102e75780630d3cf1f2146104e357806318160ddd1461050c5780631e84c413146105375780631fe543e3146105625761034f565b806307e89ec014610452578063081812fc1461047d578063095ea7b3146104ba5761034f565b806203223514610354578063013eee1f1461036b57806301ffc9a714610394578063031bd4c4146103d157806306661abd146103fc57806306fdde0314610427575b600080fd5b34801561036057600080fd5b50610369610cd5565b005b34801561037757600080fd5b50610392600480360381019061038d919061472e565b610dd0565b005b3480156103a057600080fd5b506103bb60048036038101906103b691906146dc565b610e66565b6040516103c89190614dad565b60405180910390f35b3480156103dd57600080fd5b506103e6610f48565b6040516103f39190614ff8565b60405180910390f35b34801561040857600080fd5b50610411610f4e565b60405161041e9190614ff8565b60405180910390f35b34801561043357600080fd5b5061043c610f5d565b6040516104499190614e36565b60405180910390f35b34801561045e57600080fd5b50610467610fef565b6040516104749190614ff8565b60405180910390f35b34801561048957600080fd5b506104a4600480360381019061049f919061476f565b610ffb565b6040516104b19190614cf4565b60405180910390f35b3480156104c657600080fd5b506104e160048036038101906104dc91906145f6565b611077565b005b3480156104ef57600080fd5b5061050a6004803603810190610505919061468a565b61117c565b005b34801561051857600080fd5b50610521611215565b60405161052e9190614ff8565b60405180910390f35b34801561054357600080fd5b5061054c61122c565b6040516105599190614dad565b60405180910390f35b34801561056e57600080fd5b50610589600480360381019061058491906147c1565b61123f565b005b34801561059757600080fd5b506105b260048036038101906105ad919061449c565b6112ff565b005b3480156105c057600080fd5b506105c961130f565b6040516105d69190614dad565b60405180910390f35b3480156105eb57600080fd5b506105f4611326565b6040516106019190614ff8565b60405180910390f35b34801561061657600080fd5b50610631600480360381019061062c919061468a565b61132c565b005b34801561063f57600080fd5b5061065a60048036038101906106559190614815565b6113c5565b604051610668929190614d84565b60405180910390f35b34801561067d57600080fd5b5061069860048036038101906106939190614437565b611431565b6040516106a59190614ff8565b60405180910390f35b6106b6611449565b005b3480156106c457600080fd5b506106df60048036038101906106da919061449c565b61153e565b005b3480156106ed57600080fd5b506107086004803603810190610703919061472e565b61155e565b005b34801561071657600080fd5b5061071f6115f4565b60405161072c9190614ff8565b60405180910390f35b34801561074157600080fd5b5061074a6115fd565b005b34801561075857600080fd5b50610773600480360381019061076e919061476f565b61174e565b6040516107809190614cf4565b60405180910390f35b34801561079557600080fd5b5061079e611764565b6040516107ab9190614e36565b60405180910390f35b3480156107c057600080fd5b506107db60048036038101906107d69190614437565b6117f2565b6040516107e89190614ff8565b60405180910390f35b3480156107fd57600080fd5b506108066118c2565b6040516108139190614e36565b60405180910390f35b34801561082857600080fd5b50610831611954565b005b34801561083f57600080fd5b5061085a6004803603810190610855919061476f565b6119dc565b6040516108679190614ff8565b60405180910390f35b34801561087c57600080fd5b506108856119f4565b6040516108929190614ff8565b60405180910390f35b3480156108a757600080fd5b506108b06119fa565b6040516108bd9190614cf4565b60405180910390f35b6108e060048036038101906108db9190614851565b611a24565b005b3480156108ee57600080fd5b506108f7611d90565b6040516109049190614ff8565b60405180910390f35b34801561091957600080fd5b50610922611d96565b60405161092f9190614ff8565b60405180910390f35b34801561094457600080fd5b5061094d611d9c565b60405161095a9190614e36565b60405180910390f35b34801561096f57600080fd5b5061098a60048036038101906109859190614632565b611e2e565b6040516109979190614dad565b60405180910390f35b3480156109ac57600080fd5b506109b5611f2d565b6040516109c29190614ff8565b60405180910390f35b6109e560048036038101906109e0919061476f565b611f33565b005b3480156109f357600080fd5b50610a0e6004803603810190610a09919061476f565b6120f1565b604051610a1b9190614ff8565b60405180910390f35b348015610a3057600080fd5b50610a4b6004803603810190610a4691906145ba565b61210e565b005b348015610a5957600080fd5b50610a62612286565b604051610a6f9190614ff8565b60405180910390f35b348015610a8457600080fd5b50610a9f6004803603810190610a9a91906144eb565b612290565b005b348015610aad57600080fd5b50610ab6612308565b604051610ac39190614dc8565b60405180910390f35b348015610ad857600080fd5b50610ae161230e565b604051610aee9190614ff8565b60405180910390f35b348015610b0357600080fd5b50610b1e6004803603810190610b19919061476f565b61231a565b604051610b2b9190614e36565b60405180910390f35b348015610b4057600080fd5b50610b5b6004803603810190610b56919061476f565b612448565b604051610b689190614ff8565b60405180910390f35b348015610b7d57600080fd5b50610b986004803603810190610b939190614566565b6124ac565b005b348015610ba657600080fd5b50610bc16004803603810190610bbc91906146b3565b612597565b005b348015610bcf57600080fd5b50610bea6004803603810190610be59190614460565b61261d565b604051610bf79190614dad565b60405180910390f35b348015610c0c57600080fd5b50610c156126b1565b604051610c229190614dad565b60405180910390f35b348015610c3757600080fd5b50610c406126c4565b604051610c4d9190614dad565b60405180910390f35b348015610c6257600080fd5b50610c7d6004803603810190610c789190614437565b6126db565b005b348015610c8b57600080fd5b50610c946127d3565b604051610ca19190614ff8565b60405180910390f35b348015610cb657600080fd5b50610cbf6127d9565b604051610ccc9190614dad565b60405180910390f35b610cdd6127ec565b73ffffffffffffffffffffffffffffffffffffffff16610cfb6119fa565b73ffffffffffffffffffffffffffffffffffffffff1614610d51576040517f08c379a0000000000000000000000000000000000000000000000000000000008152600401610d4890614f38565b60405180910390fd5b60001515601160009054906101000a900460ff16151514610da7576040517f08c379a0000000000000000000000000000000000000000000000000000000008152600401610d9e90614f78565b60405180910390fd5b610db3336010546127f4565b6001601160006101000a81548160ff021916908315150217905550565b610dd86127ec565b73ffffffffffffffffffffffffffffffffffffffff16610df66119fa565b73ffffffffffffffffffffffffffffffffffffffff1614610e4c576040517f08c379a0000000000000000000000000000000000000000000000000000000008152600401610e4390614f38565b60405180910390fd5b80600d9080519060200190610e629291906140ab565b5050565b60007f80ac58cd000000000000000000000000000000000000000000000000000000007bffffffffffffffffffffffffffffffffffffffffffffffffffffffff1916827bffffffffffffffffffffffffffffffffffffffffffffffffffffffff19161480610f3157507f5b5e139f000000000000000000000000000000000000000000000000000000007bffffffffffffffffffffffffffffffffffffffffffffffffffffffff1916827bffffffffffffffffffffffffffffffffffffffffffffffffffffffff1916145b80610f415750610f4082612812565b5b9050919050565b61271081565b6000610f5861287c565b905090565b606060028054610f6c906154b2565b80601f0160208091040260200160405190810160405280929190818152602001828054610f98906154b2565b8015610fe55780601f10610fba57610100808354040283529160200191610fe5565b820191906000526020600020905b815481529060010190602001808311610fc857829003601f168201915b5050505050905090565b67016345785d8a000081565b60006110068261288f565b61103c576040517fcf4700e400000000000000000000000000000000000000000000000000000000815260040160405180910390fd5b6006600083815260200190815260200160002060009054906101000a900473ffffffffffffffffffffffffffffffffffffffff169050919050565b60006110828261174e565b90508073ffffffffffffffffffffffffffffffffffffffff168373ffffffffffffffffffffffffffffffffffffffff1614156110ea576040517f943f7b8c00000000000000000000000000000000000000000000000000000000815260040160405180910390fd5b8073ffffffffffffffffffffffffffffffffffffffff166111096127ec565b73ffffffffffffffffffffffffffffffffffffffff161461116c57611135816111306127ec565b61261d565b61116b576040517fcfb3b94200000000000000000000000000000000000000000000000000000000815260040160405180910390fd5b5b6111778383836128dd565b505050565b6111846127ec565b73ffffffffffffffffffffffffffffffffffffffff166111a26119fa565b73ffffffffffffffffffffffffffffffffffffffff16146111f8576040517f08c379a00000000000000000000000000000000000000000000000000000000081526004016111ef90614f38565b60405180910390fd5b80601160026101000a81548160ff02191690831515021790555050565b600061121f61298f565b6001546000540303905090565b601160019054906101000a900460ff1681565b7f000000000000000000000000000000000000000000000000000000000000000073ffffffffffffffffffffffffffffffffffffffff163373ffffffffffffffffffffffffffffffffffffffff16146112f157337f00000000000000000000000000000000000000000000000000000000000000006040517f1cf993f40000000000000000000000000000000000000000000000000000000081526004016112e8929190614d0f565b60405180910390fd5b6112fb8282612994565b5050565b61130a838383612a36565b505050565b6000601160019054906101000a900460ff16905090565b600e5481565b6113346127ec565b73ffffffffffffffffffffffffffffffffffffffff166113526119fa565b73ffffffffffffffffffffffffffffffffffffffff16146113a8576040517f08c379a000000000000000000000000000000000000000000000000000000000815260040161139f90614f38565b60405180910390fd5b80601160016101000a81548160ff02191690831515021790555050565b6000806113d18461288f565b611410576040517f08c379a000000000000000000000000000000000000000000000000000000000815260040161140790614ef8565b60405180910390fd5b3061142661141f856005612eec565b6064612f02565b915091509250929050565b60136020528060005260406000206000915090505481565b6114516127ec565b73ffffffffffffffffffffffffffffffffffffffff1661146f6119fa565b73ffffffffffffffffffffffffffffffffffffffff16146114c5576040517f08c379a00000000000000000000000000000000000000000000000000000000081526004016114bc90614f38565b60405180910390fd5b60003373ffffffffffffffffffffffffffffffffffffffff16476040516114eb90614cdf565b60006040518083038185875af1925050503d8060008114611528576040519150601f19603f3d011682016040523d82523d6000602084013e61152d565b606091505b505090508061153b57600080fd5b50565b61155983838360405180602001604052806000815250612290565b505050565b6115666127ec565b73ffffffffffffffffffffffffffffffffffffffff166115846119fa565b73ffffffffffffffffffffffffffffffffffffffff16146115da576040517f08c379a00000000000000000000000000000000000000000000000000000000081526004016115d190614f38565b60405180910390fd5b80600c90805190602001906115f09291906140ab565b5050565b60008054905090565b6103e8600b5461160d91906151ad565b600e541015611651576040517f08c379a000000000000000000000000000000000000000000000000000000000815260040161164890614eb8565b60405180910390fd5b601460009054906101000a900473ffffffffffffffffffffffffffffffffffffffff1673ffffffffffffffffffffffffffffffffffffffff16635d3b1d307f00000000000000000000000000000000000000000000000000000000000000007f00000000000000000000000000000000000000000000000000000000000000006003620186a060016040518663ffffffff1660e01b81526004016116f9959493929190614de3565b602060405180830381600087803b15801561171357600080fd5b505af1158015611727573d6000803e3d6000fd5b505050506040513d601f19601f8201168201806040525081019061174b9190614798565b50565b600061175982612f18565b600001519050919050565b600c8054611771906154b2565b80601f016020809104026020016040519081016040528092919081815260200182805461179d906154b2565b80156117ea5780601f106117bf576101008083540402835291602001916117ea565b820191906000526020600020905b8154815290600101906020018083116117cd57829003601f168201915b505050505081565b60008073ffffffffffffffffffffffffffffffffffffffff168273ffffffffffffffffffffffffffffffffffffffff16141561185a576040517f8f4eb60400000000000000000000000000000000000000000000000000000000815260040160405180910390fd5b600560008373ffffffffffffffffffffffffffffffffffffffff1673ffffffffffffffffffffffffffffffffffffffff16815260200190815260200160002060000160009054906101000a900467ffffffffffffffff1667ffffffffffffffff169050919050565b6060600c80546118d1906154b2565b80601f01602080910402602001604051908101604052809291908181526020018280546118fd906154b2565b801561194a5780601f1061191f5761010080835404028352916020019161194a565b820191906000526020600020905b81548152906001019060200180831161192d57829003601f168201915b5050505050905090565b61195c6127ec565b73ffffffffffffffffffffffffffffffffffffffff1661197a6119fa565b73ffffffffffffffffffffffffffffffffffffffff16146119d0576040517f08c379a00000000000000000000000000000000000000000000000000000000081526004016119c790614f38565b60405180910390fd5b6119da60006131a3565b565b600a6020528060005260406000206000915090505481565b611b5881565b6000600860009054906101000a900473ffffffffffffffffffffffffffffffffffffffff16905090565b60026009541415611a6a576040517f08c379a0000000000000000000000000000000000000000000000000000000008152600401611a6190614fb8565b60405180910390fd5b6002600981905550601160029054906101000a900460ff16611ac1576040517f08c379a0000000000000000000000000000000000000000000000000000000008152600401611ab890614f58565b60405180910390fd5b8260ff16600e5481611ad161287c565b611adb91906151ad565b1115611b1c576040517f08c379a0000000000000000000000000000000000000000000000000000000008152600401611b1390614e58565b60405180910390fd5b67011c37937e0800008460ff16348183611b369190615234565b14611b76576040517f08c379a0000000000000000000000000000000000000000000000000000000008152600401611b6d90614f98565b60405180910390fd5b8484601254611bed838380806020026020016040519081016040528093929190818152602001838360200280828437600081840152601f19601f820116905080830192505050505050508233604051602001611bd29190614c8a565b60405160208183030381529060405280519060200120613269565b611c2c576040517f08c379a0000000000000000000000000000000000000000000000000000000008152600401611c2390614ed8565b60405180910390fd5b6000601360003373ffffffffffffffffffffffffffffffffffffffff1673ffffffffffffffffffffffffffffffffffffffff168152602001908152602001600020549050611b588a60ff1682611c8291906151ad565b1115611cc3576040517f08c379a0000000000000000000000000000000000000000000000000000000008152600401611cba90614e78565b60405180910390fd5b600f548a60ff16611cd261287c565b611cdc91906151ad565b1115611d1d576040517f08c379a0000000000000000000000000000000000000000000000000000000008152600401611d1490614e58565b60405180910390fd5b8960ff1681611d2c91906151ad565b601360003373ffffffffffffffffffffffffffffffffffffffff1673ffffffffffffffffffffffffffffffffffffffff16815260200190815260200160002081905550611d7c338b60ff166127f4565b505050505050506001600981905550505050565b600f5481565b60105481565b606060038054611dab906154b2565b80601f0160208091040260200160405190810160405280929190818152602001828054611dd7906154b2565b8015611e245780601f10611df957610100808354040283529160200191611e24565b820191906000526020600020905b815481529060010190602001808311611e0757829003601f168201915b5050505050905090565b6000611e386127ec565b73ffffffffffffffffffffffffffffffffffffffff16611e566119fa565b73ffffffffffffffffffffffffffffffffffffffff1614611eac576040517f08c379a0000000000000000000000000000000000000000000000000000000008152600401611ea390614f38565b60405180910390fd5b600033604051602001611ebf9190614c8a565b604051602081830303815290604052805190602001209050611f23858580806020026020016040519081016040528093929190818152602001838360200280828437600081840152601f19601f820116905080830192505050505050508483613269565b9150509392505050565b6103e881565b60026009541415611f79576040517f08c379a0000000000000000000000000000000000000000000000000000000008152600401611f7090614fb8565b60405180910390fd5b600260098190555067016345785d8a000081348183611f989190615234565b14611fd8576040517f08c379a0000000000000000000000000000000000000000000000000000000008152600401611fcf90614f98565b60405180910390fd5b601160019054906101000a900460ff16612027576040517f08c379a000000000000000000000000000000000000000000000000000000000815260040161201e90614fd8565b60405180910390fd5b82600e548161203461287c565b61203e91906151ad565b111561207f576040517f08c379a000000000000000000000000000000000000000000000000000000000815260040161207690614e58565b60405180910390fd5b83611b588161208d336117f2565b61209791906151ad565b11156120d8576040517f08c379a00000000000000000000000000000000000000000000000000000000081526004016120cf90614f18565b60405180910390fd5b6120e233866127f4565b50505050600160098190555050565b6000600a6000838152602001908152602001600020549050919050565b6121166127ec565b73ffffffffffffffffffffffffffffffffffffffff168273ffffffffffffffffffffffffffffffffffffffff16141561217b576040517fb06307db00000000000000000000000000000000000000000000000000000000815260040160405180910390fd5b80600760006121886127ec565b73ffffffffffffffffffffffffffffffffffffffff1673ffffffffffffffffffffffffffffffffffffffff16815260200190815260200160002060008473ffffffffffffffffffffffffffffffffffffffff1673ffffffffffffffffffffffffffffffffffffffff16815260200190815260200160002060006101000a81548160ff0219169083151502179055508173ffffffffffffffffffffffffffffffffffffffff166122356127ec565b73ffffffffffffffffffffffffffffffffffffffff167f17307eab39ab6107e8899845ad3d59bd9653f200f220920489ca2b5937696c318360405161227a9190614dad565b60405180910390a35050565b6000600b54905090565b61229b848484612a36565b6122ba8373ffffffffffffffffffffffffffffffffffffffff16613280565b15612302576122cb848484846132a3565b612301576040517fd1a57ed600000000000000000000000000000000000000000000000000000000815260040160405180910390fd5b5b50505050565b60125481565b67011c37937e08000081565b60606123258261288f565b612364576040517f08c379a000000000000000000000000000000000000000000000000000000000815260040161235b90614ef8565b60405180910390fd5b6000600b5414806123765750600b5482115b1561240d57600d8054612388906154b2565b80601f01602080910402602001604051908101604052809291908181526020018280546123b4906154b2565b80156124015780601f106123d657610100808354040283529160200191612401565b820191906000526020600020905b8154815290600101906020018083116123e457829003601f168201915b50505050509050612443565b600c61242061241b84612448565b613403565b604051602001612431929190614ca5565b60405160208183030381529060405290505b919050565b6000806103e8836124599190615203565b90506000612466826135b0565b90506000600a6000848152602001908152602001600020546103e88661248c9190615582565b61249691906151ad565b90506124a2818361362d565b9350505050919050565b6124b46127ec565b73ffffffffffffffffffffffffffffffffffffffff166124d26119fa565b73ffffffffffffffffffffffffffffffffffffffff1614612528576040517f08c379a000000000000000000000000000000000000000000000000000000000815260040161251f90614f38565b60405180910390fd5b60005b81518110156125925761257f3384848481518110612572577f4e487b7100000000000000000000000000000000000000000000000000000000600052603260045260246000fd5b602002602001015161153e565b808061258a90615515565b91505061252b565b505050565b61259f6127ec565b73ffffffffffffffffffffffffffffffffffffffff166125bd6119fa565b73ffffffffffffffffffffffffffffffffffffffff1614612613576040517f08c379a000000000000000000000000000000000000000000000000000000000815260040161260a90614f38565b60405180910390fd5b8060128190555050565b6000600760008473ffffffffffffffffffffffffffffffffffffffff1673ffffffffffffffffffffffffffffffffffffffff16815260200190815260200160002060008373ffffffffffffffffffffffffffffffffffffffff1673ffffffffffffffffffffffffffffffffffffffff16815260200190815260200160002060009054906101000a900460ff16905092915050565b601160029054906101000a900460ff1681565b6000601160029054906101000a900460ff16905090565b6126e36127ec565b73ffffffffffffffffffffffffffffffffffffffff166127016119fa565b73ffffffffffffffffffffffffffffffffffffffff1614612757576040517f08c379a000000000000000000000000000000000000000000000000000000000815260040161274e90614f38565b60405180910390fd5b600073ffffffffffffffffffffffffffffffffffffffff168173ffffffffffffffffffffffffffffffffffffffff1614156127c7576040517f08c379a00000000000000000000000000000000000000000000000000000000081526004016127be90614e98565b60405180910390fd5b6127d0816131a3565b50565b600b5481565b601160009054906101000a900460ff1681565b600033905090565b61280e828260405180602001604052806000815250613801565b5050565b60007f01ffc9a7000000000000000000000000000000000000000000000000000000007bffffffffffffffffffffffffffffffffffffffffffffffffffffffff1916827bffffffffffffffffffffffffffffffffffffffffffffffffffffffff1916149050919050565b600061288661298f565b60005403905090565b60008161289a61298f565b111580156128a9575060005482105b80156128d6575060046000838152602001908152602001600020600001601c9054906101000a900460ff16155b9050919050565b826006600084815260200190815260200160002060006101000a81548173ffffffffffffffffffffffffffffffffffffffff021916908373ffffffffffffffffffffffffffffffffffffffff160217905550818373ffffffffffffffffffffffffffffffffffffffff168273ffffffffffffffffffffffffffffffffffffffff167f8c5be1e5ebec7d5bd14f71427d1e84f3dd0314c0f7b2291e5b200ac8c7c3b92560405160405180910390a4505050565b600090565b6103e8600b546129a491906151ad565b600e5410156129e8576040517f08c379a00000000000000000000000000000000000000000000000000000000081526004016129df90614eb8565b60405180910390fd5b612a3281600081518110612a25577f4e487b7100000000000000000000000000000000000000000000000000000000600052603260045260246000fd5b6020026020010151613bc3565b5050565b6000612a4182612f18565b90508373ffffffffffffffffffffffffffffffffffffffff16816000015173ffffffffffffffffffffffffffffffffffffffff1614612aac576040517fa114810000000000000000000000000000000000000000000000000000000000815260040160405180910390fd5b60008473ffffffffffffffffffffffffffffffffffffffff16612acd6127ec565b73ffffffffffffffffffffffffffffffffffffffff161480612afc5750612afb85612af66127ec565b61261d565b5b80612b415750612b0a6127ec565b73ffffffffffffffffffffffffffffffffffffffff16612b2984610ffb565b73ffffffffffffffffffffffffffffffffffffffff16145b905080612b7a576040517f59c896be00000000000000000000000000000000000000000000000000000000815260040160405180910390fd5b600073ffffffffffffffffffffffffffffffffffffffff168473ffffffffffffffffffffffffffffffffffffffff161415612be1576040517fea553b3400000000000000000000000000000000000000000000000000000000815260040160405180910390fd5b612bee8585856001613c55565b612bfa600084876128dd565b6001600560008773ffffffffffffffffffffffffffffffffffffffff1673ffffffffffffffffffffffffffffffffffffffff16815260200190815260200160002060000160008282829054906101000a900467ffffffffffffffff160392506101000a81548167ffffffffffffffff021916908367ffffffffffffffff1602179055506001600560008673ffffffffffffffffffffffffffffffffffffffff1673ffffffffffffffffffffffffffffffffffffffff16815260200190815260200160002060000160008282829054906101000a900467ffffffffffffffff160192506101000a81548167ffffffffffffffff021916908367ffffffffffffffff1602179055506000600460008581526020019081526020016000209050848160000160006101000a81548173ffffffffffffffffffffffffffffffffffffffff021916908373ffffffffffffffffffffffffffffffffffffffff160217905550428160000160146101000a81548167ffffffffffffffff021916908367ffffffffffffffff16021790555060006001850190506000600460008381526020019081526020016000209050600073ffffffffffffffffffffffffffffffffffffffff168160000160009054906101000a900473ffffffffffffffffffffffffffffffffffffffff1673ffffffffffffffffffffffffffffffffffffffff161415612e7a576000548214612e7957878160000160006101000a81548173ffffffffffffffffffffffffffffffffffffffff021916908373ffffffffffffffffffffffffffffffffffffffff16021790555084602001518160000160146101000a81548167ffffffffffffffff021916908367ffffffffffffffff1602179055505b5b505050828473ffffffffffffffffffffffffffffffffffffffff168673ffffffffffffffffffffffffffffffffffffffff167fddf252ad1be2c89b69c2b068fc378daa952ba7f163c4a11628f55a4df523b3ef60405160405180910390a4612ee58585856001613c5b565b5050505050565b60008183612efa9190615234565b905092915050565b60008183612f109190615203565b905092915050565b612f20614131565b600082905080612f2e61298f565b1161316c5760005481101561316b576000600460008381526020019081526020016000206040518060600160405290816000820160009054906101000a900473ffffffffffffffffffffffffffffffffffffffff1673ffffffffffffffffffffffffffffffffffffffff1673ffffffffffffffffffffffffffffffffffffffff1681526020016000820160149054906101000a900467ffffffffffffffff1667ffffffffffffffff1667ffffffffffffffff16815260200160008201601c9054906101000a900460ff1615151515815250509050806040015161316957600073ffffffffffffffffffffffffffffffffffffffff16816000015173ffffffffffffffffffffffffffffffffffffffff161461304d57809250505061319e565b5b60011561316857818060019003925050600460008381526020019081526020016000206040518060600160405290816000820160009054906101000a900473ffffffffffffffffffffffffffffffffffffffff1673ffffffffffffffffffffffffffffffffffffffff1673ffffffffffffffffffffffffffffffffffffffff1681526020016000820160149054906101000a900467ffffffffffffffff1667ffffffffffffffff1667ffffffffffffffff16815260200160008201601c9054906101000a900460ff1615151515815250509050600073ffffffffffffffffffffffffffffffffffffffff16816000015173ffffffffffffffffffffffffffffffffffffffff161461316357809250505061319e565b61304e565b5b505b5b6040517fdf2d9b4200000000000000000000000000000000000000000000000000000000815260040160405180910390fd5b919050565b6000600860009054906101000a900473ffffffffffffffffffffffffffffffffffffffff16905081600860006101000a81548173ffffffffffffffffffffffffffffffffffffffff021916908373ffffffffffffffffffffffffffffffffffffffff1602179055508173ffffffffffffffffffffffffffffffffffffffff168173ffffffffffffffffffffffffffffffffffffffff167f8be0079c531659141344cd1fd0a4f28419497f9722a3daafe3b4186f6b6457e060405160405180910390a35050565b6000826132768584613c61565b1490509392505050565b6000808273ffffffffffffffffffffffffffffffffffffffff163b119050919050565b60008373ffffffffffffffffffffffffffffffffffffffff1663150b7a026132c96127ec565b8786866040518563ffffffff1660e01b81526004016132eb9493929190614d38565b602060405180830381600087803b15801561330557600080fd5b505af192505050801561333657506040513d601f19601f820116820180604052508101906133339190614705565b60015b6133b0573d8060008114613366576040519150601f19603f3d011682016040523d82523d6000602084013e61336b565b606091505b506000815114156133a8576040517fd1a57ed600000000000000000000000000000000000000000000000000000000815260040160405180910390fd5b805181602001fd5b63150b7a0260e01b7bffffffffffffffffffffffffffffffffffffffffffffffffffffffff1916817bffffffffffffffffffffffffffffffffffffffffffffffffffffffff191614915050949350505050565b6060600082141561344b576040518060400160405280600181526020017f300000000000000000000000000000000000000000000000000000000000000081525090506135ab565b600082905060005b6000821461347d57808061346690615515565b915050600a826134769190615203565b9150613453565b60008167ffffffffffffffff8111156134bf577f4e487b7100000000000000000000000000000000000000000000000000000000600052604160045260246000fd5b6040519080825280601f01601f1916602001820160405280156134f15781602001600182028036833780820191505090505b5090505b600085146135a45760018261350a9190615312565b9150600a856135199190615582565b603061352591906151ad565b60f81b818381518110613561577f4e487b7100000000000000000000000000000000000000000000000000000000600052603260045260246000fd5b60200101907effffffffffffffffffffffffffffffffffffffffffffffffffffffffffffff1916908160001a905350600a8561359d9190615203565b94506134f5565b8093505050505b919050565b6135b8614174565b6135c0614174565b6000805b848110156136225760006135eb600a6000848152602001908152602001600020548561362d565b905060006103e8826135fd9190615129565b905061360b85838387613cfc565b93505050808061361a90615515565b9150506135c4565b508192505050919050565b6000808390506000805b60028110156137d75760005b60026103e86127106136559190615203565b61365f9190615234565b8110156137895760008682601481106136a1577f4e487b7100000000000000000000000000000000000000000000000000000000600052603260045260246000fd5b602002015160000151905060008783601481106136e7577f4e487b7100000000000000000000000000000000000000000000000000000000600052603260045260246000fd5b602002015160200151905081600f0b85600f0b1215613761576000868661370e9190615129565b905082600f0b81600f0b121561373f57806fffffffffffffffffffffffffffffffff169750505050505050506137fb565b858361374b919061528e565b87613756919061528e565b965081955050613774565b80600f0b85600f0b1215613773578094505b5b5050808061378190615515565b915050613643565b50612710600f0b838361379c9190615129565b600f0b126137c457816127106137b2919061528e565b836137bd919061528e565b9250600091505b80806137cf90615515565b915050613637565b5081816137e49190615129565b6fffffffffffffffffffffffffffffffff16925050505b92915050565b600080549050600073ffffffffffffffffffffffffffffffffffffffff168473ffffffffffffffffffffffffffffffffffffffff16141561386e576040517f2e07630000000000000000000000000000000000000000000000000000000000815260040160405180910390fd5b60008314156138a9576040517fb562e8dd00000000000000000000000000000000000000000000000000000000815260040160405180910390fd5b6138b66000858386613c55565b82600560008673ffffffffffffffffffffffffffffffffffffffff1673ffffffffffffffffffffffffffffffffffffffff16815260200190815260200160002060000160008282829054906101000a900467ffffffffffffffff160192506101000a81548167ffffffffffffffff021916908367ffffffffffffffff16021790555082600560008673ffffffffffffffffffffffffffffffffffffffff1673ffffffffffffffffffffffffffffffffffffffff16815260200190815260200160002060000160088282829054906101000a900467ffffffffffffffff160192506101000a81548167ffffffffffffffff021916908367ffffffffffffffff160217905550836004600083815260200190815260200160002060000160006101000a81548173ffffffffffffffffffffffffffffffffffffffff021916908373ffffffffffffffffffffffffffffffffffffffff160217905550426004600083815260200190815260200160002060000160146101000a81548167ffffffffffffffff021916908367ffffffffffffffff160217905550600081905060008482019050613a778673ffffffffffffffffffffffffffffffffffffffff16613280565b15613b3c575b818673ffffffffffffffffffffffffffffffffffffffff16600073ffffffffffffffffffffffffffffffffffffffff167fddf252ad1be2c89b69c2b068fc378daa952ba7f163c4a11628f55a4df523b3ef60405160405180910390a4613aec60008784806001019550876132a3565b613b22576040517fd1a57ed600000000000000000000000000000000000000000000000000000000815260040160405180910390fd5b808210613a7d578260005414613b3757600080fd5b613ba7565b5b818060010192508673ffffffffffffffffffffffffffffffffffffffff16600073ffffffffffffffffffffffffffffffffffffffff167fddf252ad1be2c89b69c2b068fc378daa952ba7f163c4a11628f55a4df523b3ef60405160405180910390a4808210613b3d575b816000819055505050613bbd6000858386613c5b565b50505050565b60006103e8600b5481613bff577f4e487b7100000000000000000000000000000000000000000000000000000000600052601260045260246000fd5b0490506103e8600b600082825401925050819055506103e881613c229190615234565b612710613c2f9190615312565b82613c3a9190615582565b600a6000838152602001908152602001600020819055505050565b50505050565b50505050565b60008082905060005b8451811015613cf1576000858281518110613cae577f4e487b7100000000000000000000000000000000000000000000000000000000600052603260045260246000fd5b60200260200101519050808311613cd057613cc98382614075565b9250613cdd565b613cda8184614075565b92505b508080613ce990615515565b915050613c6a565b508091505092915050565b60008082905060005b83811015613f0c576000878260148110613d48577f4e487b7100000000000000000000000000000000000000000000000000000000600052603260045260246000fd5b60200201516000015190506000888360148110613d8e577f4e487b7100000000000000000000000000000000000000000000000000000000600052603260045260246000fd5b602002015160200151905081600f0b88600f0b128015613dad57508584145b15613db6578293505b81600f0b88600f0b128015613dd0575081600f0b87600f0b135b80613df3575087600f0b82600f0b13158015613df2575080600f0b87600f0b13155b5b80613e14575080600f0b88600f0b128015613e13575080600f0b87600f0b135b5b15613ef75760008888613e27919061528e565b9050613e33898461408c565b98508282613e41919061528e565b818a613e4d9190615129565b613e579190615129565b975060405180604001604052807fffffffffffffffffffffffffffffffffffffffffffffffffffffffffffffffff600f0b81526020017fffffffffffffffffffffffffffffffffffffffffffffffffffffffffffffffff600f0b8152508a8560148110613eed577f4e487b7100000000000000000000000000000000000000000000000000000000600052603260045260246000fd5b6020020181905250505b50508080613f0490615515565b915050613d05565b5060008390505b81811115613fb95786600182613f299190615312565b60148110613f60577f4e487b7100000000000000000000000000000000000000000000000000000000600052603260045260246000fd5b6020020151878260148110613f9e577f4e487b7100000000000000000000000000000000000000000000000000000000600052603260045260246000fd5b60200201819052508080613fb190615488565b915050613f13565b50604051806040016040528086600f0b8152602001613fda8661271061408c565b600f0b815250868260148110614019577f4e487b7100000000000000000000000000000000000000000000000000000000600052603260045260246000fd5b6020020181905250828061402c90615515565b935050612710600f0b84600f0b13156140695761405986600061271087614053919061528e565b86613cfc565b50828061406590615515565b9350505b82915050949350505050565b600082600052816020526040600020905092915050565b600081600f0b83600f0b126140a157816140a3565b825b905092915050565b8280546140b7906154b2565b90600052602060002090601f0160209004810192826140d95760008555614120565b82601f106140f257805160ff1916838001178555614120565b82800160010185558215614120579182015b8281111561411f578251825591602001919060010190614104565b5b50905061412d91906141a2565b5090565b6040518060600160405280600073ffffffffffffffffffffffffffffffffffffffff168152602001600067ffffffffffffffff1681526020016000151581525090565b6040518061028001604052806014905b61418c6141bf565b8152602001906001900390816141845790505090565b5b808211156141bb5760008160009055506001016141a3565b5090565b60405180604001604052806000600f0b81526020016000600f0b81525090565b60006141f26141ed84615038565b615013565b9050808382526020820190508285602086028201111561421157600080fd5b60005b85811015614241578161422788826143f8565b845260208401935060208301925050600181019050614214565b5050509392505050565b600061425e61425984615064565b615013565b90508281526020810184848401111561427657600080fd5b614281848285615446565b509392505050565b600061429c61429784615095565b615013565b9050828152602081018484840111156142b457600080fd5b6142bf848285615446565b509392505050565b6000813590506142d681615969565b92915050565b60008083601f8401126142ee57600080fd5b8235905067ffffffffffffffff81111561430757600080fd5b60208301915083602082028301111561431f57600080fd5b9250929050565b600082601f83011261433757600080fd5b81356143478482602086016141df565b91505092915050565b60008135905061435f81615980565b92915050565b60008135905061437481615997565b92915050565b600081359050614389816159ae565b92915050565b60008151905061439e816159ae565b92915050565b600082601f8301126143b557600080fd5b81356143c584826020860161424b565b91505092915050565b600082601f8301126143df57600080fd5b81356143ef848260208601614289565b91505092915050565b600081359050614407816159c5565b92915050565b60008151905061441c816159c5565b92915050565b600081359050614431816159dc565b92915050565b60006020828403121561444957600080fd5b6000614457848285016142c7565b91505092915050565b6000806040838503121561447357600080fd5b6000614481858286016142c7565b9250506020614492858286016142c7565b9150509250929050565b6000806000606084860312156144b157600080fd5b60006144bf868287016142c7565b93505060206144d0868287016142c7565b92505060406144e1868287016143f8565b9150509250925092565b6000806000806080858703121561450157600080fd5b600061450f878288016142c7565b9450506020614520878288016142c7565b9350506040614531878288016143f8565b925050606085013567ffffffffffffffff81111561454e57600080fd5b61455a878288016143a4565b91505092959194509250565b6000806040838503121561457957600080fd5b6000614587858286016142c7565b925050602083013567ffffffffffffffff8111156145a457600080fd5b6145b085828601614326565b9150509250929050565b600080604083850312156145cd57600080fd5b60006145db858286016142c7565b92505060206145ec85828601614350565b9150509250929050565b6000806040838503121561460957600080fd5b6000614617858286016142c7565b9250506020614628858286016143f8565b9150509250929050565b60008060006040848603121561464757600080fd5b600084013567ffffffffffffffff81111561466157600080fd5b61466d868287016142dc565b9350935050602061468086828701614365565b9150509250925092565b60006020828403121561469c57600080fd5b60006146aa84828501614350565b91505092915050565b6000602082840312156146c557600080fd5b60006146d384828501614365565b91505092915050565b6000602082840312156146ee57600080fd5b60006146fc8482850161437a565b91505092915050565b60006020828403121561471757600080fd5b60006147258482850161438f565b91505092915050565b60006020828403121561474057600080fd5b600082013567ffffffffffffffff81111561475a57600080fd5b614766848285016143ce565b91505092915050565b60006020828403121561478157600080fd5b600061478f848285016143f8565b91505092915050565b6000602082840312156147aa57600080fd5b60006147b88482850161440d565b91505092915050565b600080604083850312156147d457600080fd5b60006147e2858286016143f8565b925050602083013567ffffffffffffffff8111156147ff57600080fd5b61480b85828601614326565b9150509250929050565b6000806040838503121561482857600080fd5b6000614836858286016143f8565b9250506020614847858286016143f8565b9150509250929050565b60008060006040848603121561486657600080fd5b600061487486828701614422565b935050602084013567ffffffffffffffff81111561489157600080fd5b61489d868287016142dc565b92509250509250925092565b6148b281615346565b82525050565b6148c96148c482615346565b61555e565b82525050565b6148d881615358565b82525050565b6148e781615364565b82525050565b60006148f8826150db565b61490281856150f1565b9350614912818560208601615455565b61491b8161566f565b840191505092915050565b61492f81615410565b82525050565b61493e81615422565b82525050565b61494d81615434565b82525050565b600061495e826150e6565b614968818561510d565b9350614978818560208601615455565b6149818161566f565b840191505092915050565b6000614997826150e6565b6149a1818561511e565b93506149b1818560208601615455565b80840191505092915050565b600081546149ca816154b2565b6149d4818661511e565b945060018216600081146149ef5760018114614a0057614a33565b60ff19831686528186019350614a33565b614a09856150c6565b60005b83811015614a2b57815481890152600182019150602081019050614a0c565b838801955050505b50505092915050565b6000614a4960268361510d565b9150614a548261568d565b604082019050919050565b6000614a6c602f8361510d565b9150614a77826156dc565b604082019050919050565b6000614a8f60268361510d565b9150614a9a8261572b565b604082019050919050565b6000614ab260148361510d565b9150614abd8261577a565b602082019050919050565b6000614ad5601e8361510d565b9150614ae0826157a3565b602082019050919050565b6000614af860118361510d565b9150614b03826157cc565b602082019050919050565b6000614b1b601d8361510d565b9150614b26826157f5565b602082019050919050565b6000614b3e60058361511e565b9150614b498261581e565b600582019050919050565b6000614b6160208361510d565b9150614b6c82615847565b602082019050919050565b6000614b84600083615102565b9150614b8f82615870565b600082019050919050565b6000614ba7601a8361510d565b9150614bb282615873565b602082019050919050565b6000614bca60208361510d565b9150614bd58261589c565b602082019050919050565b6000614bed60188361510d565b9150614bf8826158c5565b602082019050919050565b6000614c10601f8361510d565b9150614c1b826158ee565b602082019050919050565b6000614c3360178361510d565b9150614c3e82615917565b602082019050919050565b6000614c5660018361511e565b9150614c6182615940565b600182019050919050565b614c75816153d5565b82525050565b614c84816153ef565b82525050565b6000614c9682846148b8565b60148201915081905092915050565b6000614cb182856149bd565b9150614cbc82614c49565b9150614cc8828461498c565b9150614cd382614b31565b91508190509392505050565b6000614cea82614b77565b9150819050919050565b6000602082019050614d0960008301846148a9565b92915050565b6000604082019050614d2460008301856148a9565b614d3160208301846148a9565b9392505050565b6000608082019050614d4d60008301876148a9565b614d5a60208301866148a9565b614d676040830185614c6c565b8181036060830152614d7981846148ed565b905095945050505050565b6000604082019050614d9960008301856148a9565b614da66020830184614c6c565b9392505050565b6000602082019050614dc260008301846148cf565b92915050565b6000602082019050614ddd60008301846148de565b92915050565b600060a082019050614df860008301886148de565b614e056020830187614c7b565b614e126040830186614944565b614e1f6060830185614926565b614e2c6080830184614935565b9695505050505050565b60006020820190508181036000830152614e508184614953565b905092915050565b60006020820190508181036000830152614e7181614a3c565b9050919050565b60006020820190508181036000830152614e9181614a5f565b9050919050565b60006020820190508181036000830152614eb181614a82565b9050919050565b60006020820190508181036000830152614ed181614aa5565b9050919050565b60006020820190508181036000830152614ef181614ac8565b9050919050565b60006020820190508181036000830152614f1181614aeb565b9050919050565b60006020820190508181036000830152614f3181614b0e565b9050919050565b60006020820190508181036000830152614f5181614b54565b9050919050565b60006020820190508181036000830152614f7181614b9a565b9050919050565b60006020820190508181036000830152614f9181614bbd565b9050919050565b60006020820190508181036000830152614fb181614be0565b9050919050565b60006020820190508181036000830152614fd181614c03565b9050919050565b60006020820190508181036000830152614ff181614c26565b9050919050565b600060208201905061500d6000830184614c6c565b92915050565b600061501d61502e565b905061502982826154e4565b919050565b6000604051905090565b600067ffffffffffffffff82111561505357615052615640565b5b602082029050602081019050919050565b600067ffffffffffffffff82111561507f5761507e615640565b5b6150888261566f565b9050602081019050919050565b600067ffffffffffffffff8211156150b0576150af615640565b5b6150b98261566f565b9050602081019050919050565b60008190508160005260206000209050919050565b600081519050919050565b600081519050919050565b600082825260208201905092915050565b600081905092915050565b600082825260208201905092915050565b600081905092915050565b60006151348261539a565b915061513f8361539a565b9250816f7fffffffffffffffffffffffffffffff0383136000831215161561516a576151696155b3565b5b817fffffffffffffffffffffffffffffffff800000000000000000000000000000000383126000831216156151a2576151a16155b3565b5b828201905092915050565b60006151b8826153d5565b91506151c3836153d5565b9250827fffffffffffffffffffffffffffffffffffffffffffffffffffffffffffffffff038211156151f8576151f76155b3565b5b828201905092915050565b600061520e826153d5565b9150615219836153d5565b925082615229576152286155e2565b5b828204905092915050565b600061523f826153d5565b915061524a836153d5565b9250817fffffffffffffffffffffffffffffffffffffffffffffffffffffffffffffffff0483118215151615615283576152826155b3565b5b828202905092915050565b60006152998261539a565b91506152a48361539a565b9250827fffffffffffffffffffffffffffffffff80000000000000000000000000000000018212600084121516156152df576152de6155b3565b5b826f7fffffffffffffffffffffffffffffff018213600084121615615307576153066155b3565b5b828203905092915050565b600061531d826153d5565b9150615328836153d5565b92508282101561533b5761533a6155b3565b5b828203905092915050565b6000615351826153b5565b9050919050565b60008115159050919050565b6000819050919050565b60007fffffffff0000000000000000000000000000000000000000000000000000000082169050919050565b600081600f0b9050919050565b600061ffff82169050919050565b600073ffffffffffffffffffffffffffffffffffffffff82169050919050565b6000819050919050565b600063ffffffff82169050919050565b600067ffffffffffffffff82169050919050565b600060ff82169050919050565b600061541b826153df565b9050919050565b600061542d826153df565b9050919050565b600061543f826153a7565b9050919050565b82818337600083830152505050565b60005b83811015615473578082015181840152602081019050615458565b83811115615482576000848401525b50505050565b6000615493826153d5565b915060008214156154a7576154a66155b3565b5b600182039050919050565b600060028204905060018216806154ca57607f821691505b602082108114156154de576154dd615611565b5b50919050565b6154ed8261566f565b810181811067ffffffffffffffff8211171561550c5761550b615640565b5b80604052505050565b6000615520826153d5565b91507fffffffffffffffffffffffffffffffffffffffffffffffffffffffffffffffff821415615553576155526155b3565b5b600182019050919050565b600061556982615570565b9050919050565b600061557b82615680565b9050919050565b600061558d826153d5565b9150615598836153d5565b9250826155a8576155a76155e2565b5b828206905092915050565b7f4e487b7100000000000000000000000000000000000000000000000000000000600052601160045260246000fd5b7f4e487b7100000000000000000000000000000000000000000000000000000000600052601260045260246000fd5b7f4e487b7100000000000000000000000000000000000000000000000000000000600052602260045260246000fd5b7f4e487b7100000000000000000000000000000000000000000000000000000000600052604160045260246000fd5b6000601f19601f8301169050919050565b60008160601b9050919050565b7f4e6f7420656e6f756768206b69667461626c65732072656d61696e696e67207460008201527f6f206d696e740000000000000000000000000000000000000000000000000000602082015250565b7f4d6178206b69667461626c657320746f206d696e7420696e20636f6d6d756e6960008201527f74792073616c6520697320666976650000000000000000000000000000000000602082015250565b7f4f776e61626c653a206e6577206f776e657220697320746865207a65726f206160008201527f6464726573730000000000000000000000000000000000000000000000000000602082015250565b7f6d61784b69667461626c657320746f6f206c6f77000000000000000000000000600082015250565b7f4164647265737320646f6573206e6f7420657869737420696e206c6973740000600082015250565b7f4e6f6e6578697374656e7420746f6b656e000000000000000000000000000000600082015250565b7f4d6178206b69667461626c657320746f206d696e742069732066697665000000600082015250565b7f2e6a736f6e000000000000000000000000000000000000000000000000000000600082015250565b7f4f776e61626c653a2063616c6c6572206973206e6f7420746865206f776e6572600082015250565b50565b7f436f6d6d756e6974792073616c65206973206e6f74206f70656e000000000000600082015250565b7f54726561737572792063616e206f6e6c79206265206d696e746564206f6e6365600082015250565b7f496e636f7272656374204554482076616c75652073656e740000000000000000600082015250565b7f5265656e7472616e637947756172643a207265656e7472616e742063616c6c00600082015250565b7f5075626c69632073616c65206973206e6f74206f70656e000000000000000000600082015250565b7f2f00000000000000000000000000000000000000000000000000000000000000600082015250565b61597281615346565b811461597d57600080fd5b50565b61598981615358565b811461599457600080fd5b50565b6159a081615364565b81146159ab57600080fd5b50565b6159b78161536e565b81146159c257600080fd5b50565b6159ce816153d5565b81146159d957600080fd5b50565b6159e581615403565b81146159f057600080fd5b5056fea2646970667358221220322f4d498577e1a4654b105af40fab470eba674328f2d3f96056b3feaac1dbfb64736f6c63430008040033",
  "linkReferences": {},
  "deployedLinkReferences": {}
}